:100000000C94B2000C94DA000C94DA000C94DA0030
:100010000C94DA000C94DA000C94DA000C94DA00F8
:100020000C94DA000C94DA000C94DA000C94DA00E8
:100030000C94DA000C94DA000C94DA000C94DA00D8
:100040000C94A2070C94DA000C9470070C944A07E5
:100050000C94DA000C94DA000C94DA000C94DA00B8
:100060000C94DA000C94DA0000407A10F35A00A0E5
:10007000724E18090010A5D4E80000E87648170071
:1000800000E40B54020000CA9A3B000000E1F505B1
:10009000000080969800000040420F000000A086FB
:1000A00001000000102700000000E803000000002D
:1000B0006400000000000A000000000001000000D1
:1000C00000002C76D888DC674F0823DFC1DFAE59EB
:1000D000E1B1B796E5E3E453C63AE651997696E87E
:1000E000E6C28426EB898C9B62ED407C6FFCEFBC02
:1000F0009C9F40F2BAA56FA5F490055A2AF75C932D
:100100006B6CF9676DC11BFCE0E40D47FEF520E662
:10011000B500D0ED902E0300943577050080841E45
:10012000080000204E0A000000C80C333333330FA0
:10013000986E12831141EF8D2114893BE65516CF3D
:10014000FEE6DB18D1844B381BF77C1D901DA4BB49
:10015000E424203284725E228100C9F124ECA1E5FE
:100160003D27EC0711241FBECFEFD8E0DEBFCDBF87
:1001700021E0AEE1B1E001C01D92A83FB207E1F776
:1001800011E0A0E0B1E0EEEAFEE302C005900D92BE
:10019000AE31B107D9F710E0C2EBD0E004C021972F
:1001A000FE010E945D1DC13BD107C9F70E943D0AB7
:1001B0000C94551F0C9400004F925F926F927F92A7
:1001C0008F929F92AF92BF92CF92DF92EF92FF9267
:1001D0000F931F93CF93DF93CDB7DEB76C970FB616
:1001E000F894DEBF0FBECDBF6D877E878F87988B5B
:1001F000298B3A8B4B8B5C8B2BA93CA94DA95EA913
:100200006BAD7CAD8DAD9EAD0E94791C6D8B7E8BF0
:100210008F8B988F2D853E854F855889C801B701F2
:100220000E94791C6D837E838F8398872FA538A9C0
:1002300049A95AA96FA978AD89AD9AAD0E94791CD8
:10024000698F7A8F8B8F9C8F29893A894B895C893A
:10025000C601B5010E94791C69877A878B879C87C4
:100260002D813E814F8158856D897E898F89988D3A
:100270000E946A1B4B015C0129853A854B855C8590
:10028000698D7A8D8B8D9C8D0E946A1B9B01AC01C0
:10029000C501B4010E94791C2B013C0120E030E033
:1002A000A9010E94041B87FF04C077FA709477F8B5
:1002B00070942FE632E143E85AE3C301B2010E9491
:1002C000041B87FDE0C02BA93CA94DA95EA9698943
:1002D0007A898B899C890E94791C4B015C012FA52E
:1002E00038A949A95AA96D857E858F8598890E946C
:1002F000791C69837A838B839C83A5019401698D22
:100300007A8D8B8D9C8D0E946A1B6B017C012981EB
:100310003A814B815C816D897E898F89988D0E949D
:100320006A1B9B01AC01C701B6010E94791C6B01DD
:100330007C0120E030E0A9010E94041B87FF04C07B
:10034000F7FAF094F7F8F094A50194016D817E819D
:100350008F8198850E946A1B4B015C0129813A813B
:100360004B815C8169857A858B859C850E946A1B9F
:100370009B01AC01C501B4010E94791C4B015C01D9
:1003800020E030E0A9010E94041B87FF04C0B7FAF7
:10039000B094B7F8B094A3019201C701B6010E94CE
:1003A000E61C6B017C0120E030E0A9010E94041BE7
:1003B00087FD69C020E030E040E85FE3C701B60197
:1003C0000E94581D18160CF45EC0A3019201C501CD
:1003D000B4010E94E61C4B015C0120E030E0A90161
:1003E0000E94041B87FD4FC020E030E040E85FE33F
:1003F000C501B4010E94581D18160CF444C0A70191
:1004000096016D817E818F8198850E946A1B2D8562
:100410003E854F8558890E947A1C2196EEADFFAD2E
:1004200021976083718382839383A70196016985F5
:100430007A858B859C850E946A1B29893A894B891C
:100440005C890E947A1C2396EEADFFAD23976083F2
:1004500071838283938381E06C960FB6F894DEBF3C
:100460000FBECDBFDF91CF911F910F91FF90EF9005
:10047000DF90CF90BF90AF909F908F907F906F90C4
:100480005F904F90089580E0E7CFAF92BF92CF92F8
:10049000DF92EF92FF920F931F93CF93DF936C0144
:1004A0007B018B01040F151FEB015E01AE18BF0825
:1004B000C017D10759F06991D601ED91FC910190D7
:1004C000F081E02DC6010995892B79F7C501DF91EF
:1004D000CF911F910F91FF90EF90DF90CF90BF9041
:1004E000AF900895CF93DF93FC01448155816081E3
:1004F000718187E391E00E944502EC0142E050E007
:1005000068E171E087E391E00E9445028C0F9D1F36
:10051000DF91CF910895FC01538D448D252F30E05C
:10052000842F90E0821B930B541710F0CF96089500
:1005300001970895FC01918D828D981761F0A28D2D
:10054000AE0FBF2FB11D5D968C91928D9F5F9F73F3
:10055000928F90E008958FEF9FEF0895FC01918DA9
:10056000828D981731F0828DE80FF11D858D90E016
:1005700008958FEF9FEF08952FB7F894809133017E
:1005800090913401A0913501B09136012FBF809335
:100590003F0190934001A0934101B093420187E352
:1005A00091E00E94AE0297FF26C02FB7F894809189
:1005B000330190913401A0913501B09136012FBFE4
:1005C00040913F0150914001609141017091420181
:1005D000841B950BA60BB70B40913B0150913C013E
:1005E00060913D0170913E0184179507A607B707FA
:1005F000B0F28FEF9FEF0895FC01918D228D892F2E
:1006000090E0805C9F4F821B91098F73992708951A
:1006100087E391E00E94FC0221E0892B09F420E0AD
:10062000822F089580E090E0892B29F00E94080332
:1006300081110C9400000895FC01A48DA80FB92F1E
:10064000B11DA35ABF4F2C91848D90E001968F73FA
:100650009927848FA689B7892C93A089B1898C9119
:10066000837080648C93938D848D981306C0028868
:10067000F389E02D80818F7D80830895EF92FF9232
:100680000F931F93CF93DF93EC0181E0888F9B8DB5
:100690008C8D98131AC0E889F989808185FF15C06F
:1006A0009FB7F894EE89FF896083E889F989808192
:1006B0008370806480839FBF81E090E0DF91CF9161
:1006C0001F910F91FF90EF900895F62E0B8D10E083
:1006D0000F5F1F4F0F731127E02E8C8D8E110CC0F2
:1006E0000FB607FCFACFE889F989808185FFF5CF3D
:1006F000CE010E941C03F1CFEB8DEC0FFD2FF11DFD
:10070000E35AFF4FF0829FB7F8940B8FEA89FB8979
:1007100080818062CFCFCF93DF93EC01888D8823D7
:10072000B9F0AA89BB89E889F9898C9185FD03C054
:10073000808186FD0DC00FB607FCF7CF8C9185FF39
:10074000F2CF808185FFEDCFCE010E941C03E9CF5F
:10075000DF91CF9108953FB7F89480911F01909158
:100760002001A0912101B091220126B5A89B05C0CE
:100770002F3F19F00196A11DB11D3FBFBA2FA92F20
:10078000982F8827BC01CD01620F711D811D911D1D
:1007900042E0660F771F881F991F4A95D1F7089589
:1007A0008F929F92AF92BF92CF92DF92EF92FF9281
:1007B0000F931F93CF93DF93EC018A819B8182304B
:1007C000910509F453C03CF40197D9F1E12CF12CC7
:1007D00000E010E03CC08330910509F49EC004970E
:1007E000A9F7888199818130910509F4EFC00297BA
:1007F00069F708851985C8010E94D0036B017C0147
:100800000A84DB85C02D20E030E0A9010E94581D3C
:10081000181654F0CE010E94D00320E030E0A90168
:100820000E94581D181694F6CE010E94D0039B0119
:10083000AC01C701B6010E94581D18160CF0BDCFBF
:10084000ECC0EC81FD81E088F18802891389B70151
:10085000C801DF91CF911F910F91FF90EF90DF9032
:10086000CF90BF90AF909F908F900895888199818D
:100870008130910539F1029709F0A8CFEC81FD8113
:10088000A088B188C288D388EE81FF81E088F18892
:100890000289138920E030E0A901B501C6010E9458
:1008A000581D181654F020E030E0A901B701C80126
:1008B0000E94581D18160CF089CF9501A601B701AA
:1008C000C80124C0EC81FD81A088B188C288D3888A
:1008D00020E030E0A901B501C6010E94581D18169C
:1008E0000CF074CFEE81FF81E088F18802891389D2
:1008F00020E030E0A901B701C8010E94581D181678
:100900000CF064CF9701A801B501C6010E94041B39
:1009100087FF9DCF750186019ACF888199818130AB
:10092000910551F1029709F051CFEC81FD81E088EA
:10093000F188028913890884D985C02D20E030E030
:10094000A901B701C8010E94581D18165CF0CE011C
:100950000E94D00320E030E0A9010E94581D181623
:100960000CF034CFCE010E94D0039701A8010E9461
:10097000041B87FF22CF6BCFEC81FD81E088F188DB
:100980000289138920E030E0A901B701C8010E9463
:10099000581D18160CF01ACF0884D985C02DCE0129
:1009A0000E94D0034B015C0120E030E0A9010E94CD
:1009B000581D18160CF00ACF9701A801C501B40103
:1009C0000E94581D18160CF0F8CE41CF08851985E5
:1009D000C8010E94D0036B017C0120E030E0A90136
:1009E0000E94581D18160CF0F1CE0A84DB85C02D2C
:1009F000CE010E94D0034B015C0120E030E0A90150
:100A00000E94581D18160CF0E1CEA5019401C701F3
:100A1000B6010E94041B87FFD0CEE801CECEFC01B8
:100A20006115710589F04115510571F081E090E083
:100A30009183808382E090E09383828375836483D3
:100A40005783468381E0089580E00895FC01118278
:100A500010821382128215821482178216821186E6
:100A600010861386128608950F931F93CF93DF93FA
:100A7000EC018B0184E090E00E94631D0097D1F0AF
:100A8000FC011183008313821282E881F98130977F
:100A900049F49983888381E0DF91CF911F910F9171
:100AA0000895F9012281338121153105D1F793830E
:100AB0008283F1CF80E0F0CF0F931F93CF93DF932A
:100AC000EC018B0184E090E00E94631D0097D1F05F
:100AD000FC011183008313821282EE81FF81309723
:100AE00049F49F838E8381E0DF91CF911F910F9115
:100AF0000895F9012281338121153105D1F79383BE
:100B00008283F1CF80E0F0CF8F929F92AF92BF921D
:100B1000CF92DF92EF92FF920F931F93CF93DF93C9
:100B2000EC014A015B01680179018CE090E00E94D0
:100B3000631DFC0180E0309799F01182108282825F
:100B40009382A482B582C682D782E086F18613861C
:100B50001286A881B981109789F4F983E88381E02E
:100B6000DF91CF911F910F91FF90EF90DF90CF9089
:100B7000BF90AF909F908F900895DC011A968D9151
:100B80009C911B970097C9F7B183A0831B96FC9398
:100B9000EE931A97E4CF0F931F93CF93DF93EC015B
:100BA0008B0184E090E00E94631D0097D1F0FC016E
:100BB0001183008313821282EC81FD81309749F406
:100BC0009D838C8381E0DF91CF911F910F910895D8
:100BD000F9012281338121153105D1F79383828375
:100BE000F1CF80E0F0CF0F931F93CF93DF93EC0111
:100BF0008B0184E090E00E94631D0097D1F0FC011E
:100C00001183008313821282E881F981309749F4BD
:100C10009983888381E0DF91CF911F910F9108958F
:100C2000F9012281338121153105D1F79383828324
:100C3000F1CF80E0F0CFCF93DF93EC0188819981F1
:100C4000009711F00E94FF1D198218821D821C82DC
:100C50001B821A82DF91CF910895FC0180819181DE
:100C6000009711F00C94FF1D0895CF93DF93EB01D3
:100C70006A857B856115710511F00E943506CE01EC
:100C8000DF91CF910C94FF1D0F931F93CF93DF93B0
:100C9000EC0188819981009759F02A813B812617C0
:100CA000370730F081E0DF91CF911F910F910895C8
:100CB0008B016F5F7F4F0E94881E009759F09983C8
:100CC00088831B830A832C813D81232B59F7FC01E8
:100CD0001082E8CF80E0E7CF0F931F93CF93DF938D
:100CE000EC010C811D810F5F1F4FB8010E9444066B
:100CF000882391F0288139818C819D816BE171E09D
:100D0000820F931F0E944E1F1D830C83CE01DF9123
:100D1000CF911F910F910895CE010E941B06F6CF2F
:100D2000CF92DF92EF92FF920F931F93CF93DF93B7
:100D3000CDB7DEB7A1970FB6F894DEBF0FBECDBF1B
:100D40007C01CB01BA01F701118210821382128259
:100D5000158214828E010F5F1F4F22E044E00E9433
:100D6000AF186C01009771F0FC0101900020E9F7C9
:100D700031978F01081B190BB801C7010E94440667
:100D8000811112C0C7010E941B06A1960FB6F894EC
:100D9000DEBF0FBECDBFDF91CF911F910F91FF90AE
:100DA000EF90DF90CF900895F70115830483B6018B
:100DB000808191810E944E1FE8CFEF92FF920F93A6
:100DC0001F93CF93DF93EC01FB01E080F180E114EE
:100DD000F10411F10481158101151105A9F08C812F
:100DE0009D81080F191FB801CE010E944406882377
:100DF00099F0288139818C819D81B701820F931FE1
:100E00000E944E1F1D830C83CE01DF91CF911F9155
:100E10000F91FF90EF900895CE010E941B06F4CF32
:100E2000EF92FF920F931F93CF93DF93EC01198200
:100E300018821B821A821D821C828617970719F15D
:100E4000FB010081118101151105E9F0E480F580B5
:100E5000B7010E944406811109C0CE01DF91CF91F4
:100E60001F910F91FF90EF900C941B06FD82EC8276
:100E7000B80188819981DF91CF911F910F91FF90E7
:100E8000EF900C944E1FDF91CF911F910F91FF9027
:100E9000EF9008951F920F920FB60F9211242F9387
:100EA0003F934F935F936F937F938F939F93AF93F2
:100EB000BF93EF93FF9387E391E00E941C03FF91A0
:100EC000EF91BF91AF919F918F917F916F915F91C2
:100ED0004F913F912F910F900FBE0F901F9018953B
:100EE0001F920F920FB60F9211242F938F939F93FF
:100EF000EF93FF93E0914701F09148018081E091E9
:100F00004D01F0914E0182FD1BC0908180915001F6
:100F10008F5F8F7320915101821741F0E091500152
:100F2000F0E0E95CFE4F958F80935001FF91EF91C7
:100F30009F918F912F910F900FBE0F901F9018953A
:100F40008081F4CF1F920F920FB60F9211242F932E
:100F50003F938F939F93AF93BF9380913301909171
:100F60003401A0913501B091360130911E0123E08A
:100F7000230F2D3758F50196A11DB11D20931E0199
:100F80008093330190933401A0933501B0933601DF
:100F900080911F0190912001A0912101B091220127
:100FA0000196A11DB11D80931F0190932001A09374
:100FB0002101B0932201BF91AF919F918F913F91F9
:100FC0002F910F900FBE0F901F90189526E8230FBA
:100FD0000296A11DB11DD2CF4F925F926F927F9268
:100FE0008F929F92AF92BF92CF92DF92EF92FF9239
:100FF000E7E3F1E01382128288EE93E0A0E0B0E034
:1010000084839583A683B7838AE091E0918380836C
:1010100085EC90E09587848784EC90E097878687BD
:1010200080EC90E0918B808B81EC90E0938B828BB5
:1010300082EC90E0958B848B86EC90E0978B868B8E
:10104000118E128E138E148E86E090E00E94631D26
:10105000FC011182108213821282158214829093F5
:10106000F3018093F20184E190E00E94631DFC0192
:1010700080E090E0A0EAB1EC80839183A283B38307
:1010800084839583A683B783812C912CA12C80EC3B
:10109000B82E80869186A286B386C12CD12C90E88A
:1010A000E92E9FEBF92EC486D586E686F786108A50
:1010B000118A128A138AF093F101E093F00184E11E
:1010C00090E00E94631DFC0180829182A282B38223
:1010D000C482D582E682F782C086D186E286F38614
:1010E0001486158616861786108A118A128A138A24
:1010F0009093EF018093EE0184E190E00E94631DE4
:10110000FC01C082D182E282F382148215821682AF
:1011100017821086118612861386412C512C20E8E6
:10112000622E2FE3722E4486558666867786108A55
:10113000118A128A138A9093ED018093EC0184E165
:1011400090E00E94631DFC011082118212821382C2
:101150004482558266827782408651866286738693
:10116000C12CD12CE12C30E4F32EC486D586E68642
:10117000F786108A118A128A138A9093EB01809362
:10118000EA0184E190E00E94631DFC0140825182EB
:1011900062827382C482D582E682F78280E090E028
:1011A000A0EAB1E480879187A287B3878487958777
:1011B000A687B787108A118A128A138AF093E901E9
:1011C000E093E80184E190E00E94631DFC0180E06F
:1011D00090E0A0E2B2EC80839183A283B383848306
:1011E0009583A683B783412C512C40E8642E40ECB4
:1011F000742E408651866286738684869586A6867E
:10120000B786108A118A128A138AF093E701E09355
:10121000E60184E190E00E94631DFC01408251825E
:101220006282738284829582A682B782808691864A
:10123000A286B3861486158616861786108A118AAA
:10124000128A138A9093E5018093E40184E190E08F
:101250000E94631DFC0180829182A282B38214826B
:101260001582168217821086118612861386C4860E
:10127000D586E686F786108A118A128A138A909399
:10128000E3018093E20184E190E00E94631DFC0190
:101290001082118212821382C482D582E682F78282
:1012A000C086D186E286F386812C912C50E8A52E4B
:1012B00050E4B52E84869586A686B786108A118A54
:1012C000128A138A9093E1018093E00184E190E017
:1012D0000E94631DFC01C082D182E282F38284827B
:1012E0009582A682B78280E090E0A0E2B2E4808797
:1012F0009187A287B38784879587A687B787108A47
:10130000118A128A138AF093DF01E093DE0184E1EF
:1013100090E00E94631DFC011082118212821382F0
:101320001482158216821782108611861286138601
:10133000812C912C68ECA62E61E4B62E84869586CD
:10134000A686B786108A118A128A138A9093DD01C5
:101350008093DC0184E190E00E94631DFC01108217
:1013600011821282138284829582A682B78280863D
:101370009186A286B386C12CD12C78E4E72E72E444
:10138000F72EC486D586E686F786108A118A128AD9
:10139000138A9093DB018093DA0184E190E00E944C
:1013A000631DFC0180829182A282B382C482D582B5
:1013B000E682F782C086D186E286F386812C912C64
:1013C000A6E9AA2EA2E4BA2E84869586A686B786BA
:1013D000108A118A128A138A9093D9018093D801B6
:1013E00084E190E00E94631DFC01C082D182E28210
:1013F000F38284829582A682B78280869186A286B5
:10140000B386C12CD12CB8ECEB2EB2E4FB2EC486F3
:10141000D586E686F786108A118A128A138A9093F7
:10142000D7018093D60184E190E00E94631DFC0106
:1014300080829182A282B382C482D582E682F782C0
:10144000C086D186E286F386C486D586E686F78690
:10145000108A118A128A138A9093D5018093D4013D
:10146000FF90EF90DF90CF90BF90AF909F908F90C4
:101470007F906F905F904F900895CF93DF93CDB79B
:10148000DEB7CC54D1090FB6F894DEBF0FBECDBF86
:10149000789484B5826084BD84B5816084BD85B54F
:1014A000826085BD85B5816085BD80916E0081605B
:1014B00080936E0010928100809181008260809301
:1014C0008100809181008160809381008091800003
:1014D0008160809380008091B10084608093B1002E
:1014E0008091B00081608093B00080917A00846028
:1014F00080937A0080917A00826080937A00809154
:101500007A00816080937A0080917A00806880936D
:101510007A001092C100E0914701F091480182E009
:101520008083E0914301F09144011082E0914501F4
:10153000F09146018FEC808310924F01E0914B01B6
:10154000F0914C0186E08083E0914901F0914A01DD
:10155000808180618083E0914901F0914A0180811E
:1015600088608083E0914901F0914A018081806820
:101570008083E0914901F0914A0180818F7D8083D1
:1015800088E090E00E94631D8C01EE24E394F12C2E
:10159000DC01ED92FC92FC0112821382148215820E
:1015A000178216822091F0013091F1013E8F2D8F2C
:1015B000B9010E945C058091EE019091EF019AA320
:1015C00089A3BC01C8010E945C05A091EC01B09107
:1015D000ED01BEA7ADA7BD01C8010E945C05E09169
:1015E000EA01F091EB01FEA3EDA3BF01C8010E9447
:1015F0005C052091E8013091E90138A72FA3B901DA
:10160000C8010E945C054090F2015090F301B801BE
:10161000C2010E94F30588E090E00E94631D8C01E6
:1016200082E090E0D8018D939C93F801128213829E
:1016300014821582178216822091E6013091E7010B
:101640003CA72BA7B901C8010E945C058091E40169
:101650009091E50198AB8FA7BC01C8010E945C0581
:10166000A091E201B091E301BCABABABBD01C801FD
:101670000E945C05E091E001F091E101F8AFEFAB71
:10168000BF01C8010E945C052091DE013091DF019D
:101690003CAF2BAFB901C8010E945C05B801C20183
:1016A0000E94F3058AE090E00E94631D8C01DC013A
:1016B000ED92FC92FC011282138214821582178231
:1016C000168282E090E00E94631DDC011D921C9254
:1016D000F801918780872091DC013091DD0121960E
:1016E0003FAF2EAF2197B901C8010E945C058091E0
:1016F000DA019091DB0127969FAF8EAF2797BC014F
:10170000C8010E945C052090D8013090D901B10138
:10171000C8010E945C05A091D601B091D7012B961B
:10172000BFAFAEAF2B97BD01C8010E945C05E09131
:10173000D401F091D5012596FFAFEEAF2597BF01FB
:10174000C8010E945C0584E090E00E94631D3C019A
:10175000009709F452C0DC0111961C930E93139666
:101760001C921E921297F801F6812C96FFAF2C97CF
:10177000D8011796BC912D96BFAF2D97EF2EFB2E5B
:10178000E114F10471F12C960FAD2C972D961FAD3D
:101790002D970115110509F1F801C280D380C114FC
:1017A000D104D9F0A080B180D6018D909C90F50134
:1017B0002081318142815381D4016D917D918D9140
:1017C0009C910E94041B87FF06C0F80191828082D1
:1017D000D601AD92BC928601DCCFF701E280F380A6
:1017E000CFCFD2011296ED91FC911397309709F06B
:1017F000CDC413967C926E92129782E090E00E9484
:10180000631D5C01FC011182108282E090E00E9465
:10181000631D3C01DC011D921C9282E090E00E945D
:10182000631D8C01FC011182108282E090E00E9415
:10183000631D4C01DC011D921C9282E090E00E942D
:10184000631D7C01FC01118210828CE090E00E94FB
:10185000631D6C010E9426054BA55CA56D8D7E8DD8
:10186000C6010E940F0525966EAD7FAD2597C70175
:101870000E94340587E090E00E94631DFC0181E036
:1018800090E0918380831282D482C382F682E582C3
:10189000BF01C2010E94CB058CE090E00E94631D55
:1018A0006C010E9426054BA55CA569A17AA1C60121
:1018B0000E940F0525966EAD7FAD2597C7010E944A
:1018C000340587E090E00E94631DFC0182E090E017
:1018D000918380831282D482C382F682E582BF0123
:1018E000C2010E94CB058CE090E00E94631D6C0158
:1018F0000E9426054BA55CA56DA57EA5C6010E948C
:101900000F052B966EAD7FAD2B97C4010E94340559
:1019100087E090E00E94631DFC0183E090E09183EA
:1019200080831282D482C38296828582BF01C201E3
:101930000E94CB058CE090E00E94631D6C010E9428
:1019400026054BA55CA56DA17EA1C6010E940F05D1
:10195000B101C8010E94340587E090E00E94631D38
:10196000FC0184E090E0918380831282D482C38260
:1019700016830583BF01C2010E94CB058CE090E075
:101980000E94631D6C010E9426054BA55CA56FA1FA
:1019900078A5C6010E940F05B101C8010E94340557
:1019A00087E090E00E94631DFC0185E090E0918358
:1019B00080831282D482C38216830583BF01C20151
:1019C0000E94CB058CE090E00E94631D6C010E9498
:1019D00026054FA558A96D8D7E8DC6010E940F0565
:1019E00025966EAD7FAD2597C7010E94340587E02F
:1019F00090E00E94631DFC0186E090E0918380836B
:101A00001282D482C382F682E582BF01C2010E94A3
:101A1000CB058CE090E00E94631D6C010E942605BE
:101A20004FA558A969A17AA1C6010E940F05259664
:101A30006EAD7FAD2597C7010E94340587E090E029
:101A40000E94631DFC0187E090E0918380831282F5
:101A5000D482C382F682E582BF01C2010E94CB0517
:101A60008CE090E00E94631D6C010E9426054FA54A
:101A700058A96DA57EA5C6010E940F052B966EADD7
:101A80007FAD2B97C4010E94340587E090E00E944F
:101A9000631DFC0188E090E0918380831282D482F0
:101AA000C38296828582BF01C2010E94CB058CE071
:101AB00090E00E94631D6C010E9426054FA558A965
:101AC0006DA17EA1C6010E940F05B101C8010E944F
:101AD000340587E090E00E94631DFC0189E090E0FE
:101AE000918380831282D482C38216830583BF01CF
:101AF000C2010E94CB058CE090E00E94631D6C0146
:101B00000E9426054FA558A96FA178A5C6010E947D
:101B10000F0527966EAD7FAD2797C3010E94340550
:101B200087E090E00E94631DFC018AE090E09183D1
:101B300080831282D482C38276826582BF01C20111
:101B40000E94CB058CE090E00E94631D6C010E9416
:101B500026054BA95CA96D8D7E8DC6010E940F05DF
:101B600025966EAD7FAD2597C7010E94340587E0AD
:101B700090E00E94631DFC018BE090E091838083E4
:101B80001282D482C382F682E582BF01C2010E9422
:101B9000CB058CE090E00E94631D7C010E9426052D
:101BA0004BA95CA969A17AA1C7010E940F052B96D8
:101BB0006EAD7FAD2B97C4010E94340587E090E0A5
:101BC0000E94631DFC018CE090E09183808312826F
:101BD000F482E38296828582BF01C2010E94CB0516
:101BE0008CE090E00E94631D7C010E9426054BA9B9
:101BF0005CA96DA57EA5C7010E940F05B101C801B2
:101C00000E94340587E090E00E94631DFC018DE096
:101C100090E0918380831282F482E38216830583AD
:101C2000BF01C2010E94CB058CE090E00E94631DC1
:101C30007C010E9426054BA95CA96DA17EA1C7016C
:101C40000E940F0527966EAD7FAD2797C3010E94B6
:101C5000340587E090E00E94631DFC018EE090E077
:101C6000918380831282F482E38276826582BF014F
:101C7000C2010E94CB058CE090E00E94631D7C01B4
:101C80000E9426054BA95CA96FA178A5C7010E94F7
:101C90000F0521966EAD7FAD2197C5010E943405D9
:101CA00087E090E00E94631DFC018FE090E091834B
:101CB00080831282F482E382B682A582BF01C201D0
:101CC0000E94CB058CE090E00E94631D7C010E9485
:101CD00026054FA958AD6D8D7E8DC7010E940F0559
:101CE0002B966EAD7FAD2B97C4010E94340587E023
:101CF00090E00E94631DFC0180E190E0918380836D
:101D00001282F482E38296828582BF01C2010E9420
:101D1000CB058CE090E00E94631D7C010E942605AB
:101D20004FA958AD69A17AA1C7010E940F05B10161
:101D3000C8010E94340587E090E00E94631DFC0109
:101D400081E190E0918380831282F482E3821683A2
:101D50000583BF01C2010E94CB058CE090E00E9488
:101D6000631D7C010E9426054FA958AD6DA57EA577
:101D7000C7010E940F0527966EAD7FAD2797C3015F
:101D80000E94340587E090E00E94631DFC0182E11F
:101D900090E0918380831282F482E382768265826E
:101DA000BF01C2010E94CB058CE090E00E94631D40
:101DB0007C010E9426054FA958AD6DA17EA1C701E7
:101DC0000E940F0521966EAD7FAD2197C5010E943F
:101DD000340587E090E00E94631DFC0183E190E000
:101DE000918380831282F482E382B682A582BF014E
:101DF000C2010E94CB058CE090E00E94631D7C0133
:101E00000E9426054FA958AD6FA178A5C7010E9471
:101E10000F0521966EAD7FAD2197C5010E94340557
:101E200087E090E00E94631DFC0184E190E09183D3
:101E300080831282F482E382B682A582BF01C2014E
:101E40000E94CB058CE090E00E94631D7C010E9403
:101E500026054BAD5CAD6D8D7E8DC7010E940F05D3
:101E6000B101C8010E94340587E090E00E94631D23
:101E7000FC0185E190E0918380831282F482E38209
:101E800016830583BF01C2010E94CB058CE090E060
:101E90000E94631D7C010E9426054BAD5CAD69A1CB
:101EA0007AA1C7010E940F05B101C8010E94340543
:101EB00087E090E00E94631DFC0186E190E0918341
:101EC00080831282F482E38216830583BF01C201FC
:101ED0000E94CB058CE090E00E94631D8C010E9463
:101EE00026054BAD5CAD6DA57EA5C8010E940F0512
:101EF00027966EAD7FAD2797C3010E94340587E01A
:101F000090E00E94631DFC0187E190E09183808353
:101F100012821483038376826582BF01C2010E940C
:101F2000CB058CE090E00E94631D8C010E94260589
:101F30004BAD5CAD6DA17EA1C8010E940F0521963D
:101F40006EAD7FAD2197C5010E94340587E090E01A
:101F50000E94631DFC0188E190E0918380831282DE
:101F600014830383B682A582BF01C2010E94CB0500
:101F70008CE090E00E94631D8C010E9426054BAD11
:101F80005CAD6FA178A5C8010E940F0521966EADCA
:101F90007FAD2197C5010E94340587E090E00E9443
:101FA000631DFC0189E190E0918380831282148398
:101FB0000383B682A582BF01C2010E94CB059E01A8
:101FC000235F3F4F388F2F8BCE0143969A8F898F97
:101FD000DE011796BC8FAB8F87E391E00E94FC0275
:101FE000181619060CF050C00E94BC02FC0197FDA7
:101FF000DBC08D32910521F0C0970A9708F0CDC063
:10200000C12CD12C760110E0E130F105D9F0ED3290
:10201000F10509F4C7C0CF01C0970A9798F4AAE068
:10202000B0E0A70196010E94281C6F01FF0FEE0887
:10203000FF08C60ED71EE81EF91EB0E3CB1AD10862
:10204000E108F10887E391E00E949A020E94BC0235
:10205000FC01C0970A97C0F2E130F105A9F2112303
:1020600041F0F094E094D094C094C11CD11CE11CC8
:10207000F11C80913101909132018C159D0521F068
:10208000D0923201C09231016091310170913201E0
:102090006115710509F08CC010922D0110922E016E
:1020A00010922F01109230011092290110922A01F2
:1020B00010922B0110922C0140E050E0BA01CE01A9
:1020C00001960E9490064091290150912A01609149
:1020D0002B0170912C01CE010D960E949006BE013D
:1020E000635F7F4FCE0107960E941007CE010796CF
:1020F0000E946C06BE016F5F7F4F0E94DD060E944A
:102100006C060E947202CE0107960E942D06CE0137
:102110000D960E942D06CE0101960E942D0687E3A2
:1021200091E00E948B030E94AB034B015C018CE2A7
:10213000C82EDD24D394E12CF12C0E94AB03681946
:1021400079098A099B09683E734081059105A8F3C6
:10215000E1E0CE1AD108E108F108F8EE8F0EF3E0C5
:102160009F1EA11CB11CC114D104E104F10429F784
:1021700080E090E0892B09F42FCF0E940803882388
:1021800009F426CF0E94000023CFFC0182819381B5
:102190000097D9F77382628230CB87E391E00E9487
:1021A0009A0222CF11E04ECFC12CD12C760161CF03
:1021B000E091F201F091F301F8A7EFA320803180C4
:1021C000F1013097F9F000811181D8018D919C9136
:1021D000019709F049C0072E000C880B990B0E944B
:1021E0000B1B9B01AC016091290170912A01809128
:1021F0002B0190912C010E94791CF801628373835A
:1022000084839583F1013097A9F0A081B1818D91EC
:102210009C911197029761F54091250150912601FB
:10222000609127017091280112964D935D936D93F3
:102230007C93159791012115310519F1F901A081C0
:10224000B18116960D90BC91A02D1097A9F08D919B
:102250009C911197FC01108A118A128A138A129696
:102260000D90BC91A02DF1CF0280F381E02DA9CF7C
:102270000280F381E02DC7CFD90112962D913C91B8
:10228000DACFEFA1F8A50280F381E02DFEA7EDA73C
:102290009F012115310509F4DDC0F901A081B1814B
:1022A00016960D90BC91A02D109769F08D919C9180
:1022B0001197FC01108A118A128A138A12960D90C6
:1022C000BC91A02DF1CFD90112962D913C91E1CF77
:1022D000C701B6010E94581D87FD39C0A7019601AC
:1022E000C301B2010E94581D18168CF52D8D3E8D2C
:1022F0004F8D58A1C301B2010E94791C9B01AC0112
:1023000060E070E080E89FE30E94E61C4B015C0106
:10231000A3019201C701B6010E94791C9B01AC0187
:10232000C501B4010E946A1B20E030E040E85FE391
:102330000E947A1CF801608B718B828B938BEDA1CC
:10234000FEA10280F381E02DFEA3EDA391C0D80190
:1023500018968D909D90AD90BC901B97A70196010B
:10236000C301B2010E94041B181694F0A501940148
:10237000C701B6010E94041B181654F080E090E0DB
:10238000A0E8BFE3F801808B918BA28BB38BD7CFF2
:10239000D8011C968D919D910D90BC91A02D89A383
:1023A0009AA3ABA3BCA3A5019401C701B6010E94E7
:1023B000581D18163CF5A701960169A17AA18BA1B9
:1023C0009CA10E94581D87FD1DC029A13AA14BA1C7
:1023D0005CA1C501B4010E94791C9B01AC0160E0C5
:1023E00070E080E89FE30E94E61C2B013C01A50100
:1023F0009401C701B6010E94791C9B01AC01C30185
:10240000B20190CFA701960169A17AA18BA19CA1ED
:102410000E94041B87FF93CFA501940169A17AA1B3
:102420008BA19CA10E94041B81116AC0A50194018B
:10243000C301B2010E94041B882309F461C02D8DE1
:102440003E8D4F8D58A1C301B20156C0D1011296E5
:102450002D903C902114310409F45AC0F1010190EF
:10246000F081E02DFCA7EBA7268137813EA32DA3A9
:102470008DA19EA1009751F3DC010D911C91EBA55C
:10248000FCA5C280D380E480F580D8018D919D9118
:102490000D90BC91A02D8D8F9E8FAF8FB8A3F801AA
:1024A00044805580668077809C01AD01C701B601EC
:1024B0000E94041B2D8D3E8D4F8D58A187FF08CFA4
:1024C000C301B2010E94041B81111AC0D8011896E1
:1024D000CD90DD90ED90FC901B97A7019601C30174
:1024E000B2010E94041B882359F0F8012485358528
:1024F00046855785C701B6010E94041B81113ECF56
:10250000D80150961D921D921D921C92539717CF81
:10251000EFA1F8A5048115817724739401151105A5
:1025200009F48BC3D801ED90FC90F701838194816D
:102530000097B1F1C580D680C114D10489F10E9401
:10254000D0034B015C0120E030E0A9010E94581D3E
:1025500018161CF5D70112967C92D601ED90FC90CE
:10256000E114F104E9F0F701C080D180D601509662
:102570002D913D914D915C915397C501B4010E94FD
:10258000581D18162CF4F601808A918AA28AB38A03
:10259000D7011296ED90FC90E3CFF7011282DDCFC8
:1025A000F80102811381BACF2B8A3C8A4D8A5E8A58
:1025B0009601A701C901DA018D879E87AF87B88B85
:1025C000F88DFF938F898F939A8D9F93A98DAF93E9
:1025D0005F934F933F932F931F93AF92BF92BBA5EF
:1025E000BF935F934F933F932F93EFA1EF93FDA181
:1025F000FF9329A12F933D8D3F93A12CB12C30E85F
:10260000C32E3FE3D32E8201710120E030E0A90107
:10261000BD8DA9A1FDA1EFA16B2F7A2F8F2F9E2F2A
:102620000E94DC000D851E852F8538894B895C89C9
:102630006D897E89D40118968D919C910E948405A4
:10264000D301ED91FC9160857185828593856F83BF
:10265000788789879A870089118932892389A80117
:10266000A32FB22F9D0109831A832B833C83E4841B
:10267000F5840685178521E030E02C0F3D1F3F9340
:102680002F933C8D3F932B8D2F93BF93AF935F93ED
:102690004F931F930F93FF92EF92BF93AF935F936C
:1026A0004F9323812F9322812F9321812F93208178
:1026B0002F93A12CB12C650120E030E040E85FE3CE
:1026C0000E94DC000FB6F894DEBF0FBECDBF0981BB
:1026D0001A812B813C814F81588569857A85D40187
:1026E00018968D919C910E948405D301ED91FC91E7
:1026F000C484D584E684F78420853185428553855A
:10270000C701B6010E94041B882351F000E010E0CD
:102710009801B701A601F401808591850E94840586
:10272000D30112966D907C90A4C220E030E040E886
:102730005FE36C2D7D2D8E2D9F2D0E94041B81113A
:102740001AC000E010E020E83FE3B201A101F4016B
:10275000808591850E948405D301ED91FC910089CB
:102760001189228933894085518562857385F401F9
:1027700080859185B8CF2B8A3C8A4D8A5E8A9601E6
:10278000A701C901DA018D879E87AF87B88BD80171
:102790007C9111966C91119712969C9112971396B9
:1027A0008C91B88DBF93EF89EF93FA8DFF93A98D2C
:1027B000AF935F934F933F932F93D8011F96EC9164
:1027C0001F97EF931E96EC911E97EF931D96EC9139
:1027D0001D97EF931C96EC91EF935F934F933F936C
:1027E0002F938F939F936F937F93A12CB12C20E80D
:1027F000C22E2FE3D22E8201710120E030E0A90128
:10280000DB01FC016B2F7A2F8F2F9E2F0E94DC00A3
:102810000D851E852F8538894B895C896D897E8958
:10282000F401808591850ACF0C2D1D2D2E2D3F2D75
:10283000AEC2F4010084F185E02D2596FFAFEEAF26
:102840002597208031802114310409F4EEC18101E3
:10285000D801ED90FC901197E114F10409F4DFC167
:1028600012968D919D910D90BC91A02D8FA398A74C
:10287000A9A7BAA7F7012281338144815581BC0100
:10288000CD010E94041B87FFCEC11E8F0D8FAD8D21
:10289000BE8D0D90BC91A02DBE8FAD8F109709F409
:1028A000BEC1ED91FC91FEA3EDA3309781F3D80159
:1028B0001A960D90BC91A02DBCA7ABA7D801169677
:1028C0008D919D910D90BC91A02D8FA798ABA9AB38
:1028D000BAABAD8DBE8D12968D919D910D90BC9130
:1028E000A02D8BAB9CABADABBEABAD8DBE8D1696AC
:1028F0008D919D910D90BC91A02D8FAB98AFA9AFFC
:10290000BAAF9C01AD0166817781808591850E9477
:10291000791C29966CAF7DAF8EAF9FAF29972FA101
:1029200038A549A55AA5EBA5FCA5628173818481D0
:1029300095810E94791C6BAF7CAF8DAF9EAF2BA9A8
:102940003CA94DA95EA9ADA1BEA112966D917D9144
:102950008D919C9115970E94791C2B013C012FA50C
:1029600038A949A95AA9EBA5FCA56681778180857C
:1029700091850E94791C23966CAF7DAF8EAF9FAF7F
:1029800023972BAD3CAD4DAD5EAD29966CAD7DADC5
:102990008EAD9FAD29970E946A1B6B017C01239627
:1029A0002CAD3DAD4EAD5FAD2397C301B2010E948A
:1029B0006A1B9B01AC01C701B6010E94791C69A387
:1029C0007AA38BA39CA320E030E0A9010E94041B02
:1029D00087FF09C089A19AA1ABA1BCA1B05889A366
:1029E0009AA3ABA3BCA32FE632E143E85AE369A163
:1029F0007AA18BA19CA10E94041B87FD48CF2FA91F
:102A000038AD49AD5AAD6FA578A989A99AA90E9498
:102A1000791C4B015C012BA93CA94DA95EA96FA1B2
:102A200078A589A59AA50E94791C6B017C01A50156
:102A30009401C301B2010E946A1B2B013C01A70152
:102A4000960129966CAD7DAD8EAD9FAD29970E9404
:102A50006A1B9B01AC01C301B2010E94791C2B01CE
:102A60003C0120E030E0A9010E94041B87FF04C064
:102A700077FA709477F87094A50194016BAD7CADF2
:102A80008DAD9EAD0E946A1B4B015C01A7019601B2
:102A900023966CAD7DAD8EAD9FAD23970E946A1BD2
:102AA0009B01AC01C501B4010E94791C6B017C0142
:102AB00020E030E0A9010E94041B87FF04C0F7FA60
:102AC000F094F7F8F09429A13AA14BA15CA1C301BD
:102AD000B2010E94E61C4B015C0120E030E0A9013C
:102AE0000E94041B87FDD3CE20E030E040E85FE386
:102AF000C501B4010E94581D18160CF4C8CE29A1B6
:102B00003AA14BA15CA1C701B6010E94E61C6B0172
:102B10007C0120E030E0A9010E94041B87FDB7CEB4
:102B200020E030E040E85FE3C701B6010E94581D95
:102B300018160CF4ACCE8CE090E00E94631D7C0172
:102B4000009709F4A4CEEDA1FEA1DC01ED93FC9366
:102B5000A50194016BAD7CAD8DAD9EAD0E946A1B4D
:102B60002FA138A549A55AA50E947A1CD701129613
:102B70006D937D938D939C931597A5019401239656
:102B80006CAD7DAD8EAD9FAD23970E946A1B2FA5C6
:102B900038A949A95AA90E947A1CF701668377834C
:102BA000808791872BA53CA533872287ADA1BEA145
:102BB0001B96FC92EE921A97F901F182E082D801FD
:102BC00012968D909D90AD90BC90159716964D9055
:102BD0005D906D907C901997EC901196FC90C801D7
:102BE0000E94FF1DA50194016BA97CA98DA99EA936
:102BF0000E94041B81110AC0A30192016FA978AD44
:102C000089AD9AAD0E94041B882319F08701EF2833
:102C1000B1F62596AEADBFAD25972D903C90F10154
:102C20002284338410CE870113CEADA5BEA51296A3
:102C30000D90BC91A02DBEA7ADA72DA53EA5211539
:102C4000310509F4A7C0D9018D909C90F40100854D
:102C50001185D8016D917C916115710519F0C8013C
:102C60000E943506F80111821082D40116966D90EB
:102C70007C906114710409F4DCCDF30100811181B1
:102C800020E030E0A901D80150966D917D918D91A1
:102C90009C9153970E94581D18160CF041CDF801D5
:102CA000C080D180E280F380A701960164817581A4
:102CB000868197810E94041B882359F000E010E070
:102CC0009801B701A601D40118968D919C910E949C
:102CD0008405F30100811181D80114962D903D9057
:102CE0004D905C9017975096CC9050975196DC90F1
:102CF00051975296EC9052975396FC905397A2019D
:102D0000910118966D917D918D919C911B970E94D8
:102D1000041B81110ACDF801F081FD8FD8011196B5
:102D2000BC91B9A3F801F281FDA3D8011396BC911F
:102D3000BFA3F801F485FBA7D8011D96BC901D9791
:102D40001E96AC901E971F961C917D8D69A19DA12A
:102D50008FA1272F362F492F582FBF2F6B2F7B2D59
:102D60008A2D912F0E94041B882309F45DCD20E059
:102D700030E040E85FE36C2D7D2D8E2D9F2D0E946D
:102D8000041B811111CC00E010E020E83FE3B20108
:102D9000A101EDCCE091F201F091F3010280F38109
:102DA000E02D309709F4D7C1A081B1818D919C911C
:102DB0001197019799F71896ED91FC910190F08188
:102DC000E02D1FA618AA19AA1AAA1BAA1CAA1DAA96
:102DD0001EAA309709F42AC1028513850115110531
:102DE00009F424C1C280D380E480F580D801129612
:102DF0008D909D90AD90BC901597B681BD8F278129
:102E000029A320843184A5019401C701B6010E9441
:102E1000041B882309F4FEC0D8011696BC91BDA7F7
:102E2000F801F781FDA3D8011896BC91BFA3F80162
:102E3000F185FBA720E030E0A9016D8D79A1C101EA
:102E40000E94041B882359F020E030E0A9016DA501
:102E50007DA18FA19BA50E94041B811156C020E07B
:102E600030E0A9016D8D79A1C1010E94581D18168D
:102E70000CF040C02D8D2FAB39A13BAF2FAE249667
:102E80003FAE2497A7019601C501B4010E94791CA9
:102E90002B013C012FA93BAD4FAD24965FAD24978C
:102EA0000E946A1B20E030E040E05FE30E946A1B62
:102EB0004B015C012D8D39A1A1016DA57DA18FA1D3
:102EC0009BA50E94581D20E030E040EC5FE31816FF
:102ED00024F020E030E040E450E4C301B2010E945D
:102EE000E61C9B01AC01C701B6010E947A1C6B0174
:102EF0007C014CC08DA58FAB9DA19BAFAFA1AFAFA7
:102F0000BBA52496BFAF2497BDCF20E030E0A90138
:102F10006D8D79A1C1010E94581D18160CF07EC05C
:102F200020E030E0A9016DA57DA18FA19BA50E94A5
:102F3000581D18160CF072C02D8D39A1A1016DA578
:102F40007DA18FA19BA50E94041BA7019601811161
:102F50003DC0C501B4010E94791C4B015C0120E019
:102F600030E040E05FE30E946A1B9B01AC01C701B7
:102F7000B6010E947A1C6B017C01A50194016D8D44
:102F800079A1C1010E946A1B4B015C01A701960156
:102F9000B401C5010E946A1B9B01AC016BA97CA90D
:102FA0008DA99EA90E947A1C6BAB7CAB8DAB9EABAE
:102FB0009401A5016FA578A989A99AA90E947A1CF4
:102FC0006FA778AB89AB9AABF80103CFC501B40109
:102FD0000E94791C2B013C012D8D39A1A1016DA509
:102FE0007DA18FA19BA50E947A1C20E030E040E0EB
:102FF0005FE30E946A1BA30192010E946A1B4B01BE
:103000005C0120E030E040E05FE3C301B2010E94D8
:103010006A1B67CF8D8C99A05101B8CFC12CD12CE0
:103020007601812C912CA12CB12CB0CF20E030E086
:10303000A9016FA578A989A99AA90E94041B8823D0
:1030400009F489C02FA538A949A95AA96BA97CA957
:103050008DA99EA90E94E61CAB01BC0140932D01E5
:1030600050932E0160932F0170933001CE01019691
:103070000E9490064091290150912A0160912B01F4
:1030800070912C01CE010D960E949006BE01635FE7
:103090007F4FCE0107960E941007CE0107960E942F
:1030A0006C06BE016F5F7F4F0E94DD060E946C06BA
:1030B0000E947202CE0107960E942D06CE010D9647
:1030C0000E942D06CE0101960E942D06C090290176
:1030D000D0902A01E0902B01F0902C0123E733E1FE
:1030E00045E35BE360912D0170912E0180912F01EA
:1030F000909130010E946A1B4B015C0129E832ED7E
:103100004EE75FE3C701B6010E946A1B9B01AC0159
:10311000C501B4010E947A1C6093290170932A01B1
:1031200080932B0190932C01A70196010E94791C9A
:1031300060932501709326018093270190932801C5
:103140008091230190912401019690932401809312
:1031500023010C948F1040E050E0BA017FCFEF9232
:103160000F931F93CF93DF93E80134E047FD34E1E1
:10317000042E000C550B57FF03C051954195510982
:10318000E32E022F242FAE010E94CD18CE01DF9135
:10319000CF911F910F91EF900895A9E0B0E0E3ED7A
:1031A000F8E10C94391C6A01F22EB02E102FFBE3CB
:1031B000AF2EA01608F41BE31F5F012F27E0AE011E
:1031C0004F5F5F4F0E942C1ABC018981982F997024
:1031D000913009F43FC09BE2E1FC04C09E2D917048
:1031E000E0FC3AC05E2D5071E82FE87083FF46C0C6
:1031F00084E0911101C083E0EF2DE81B8F1508F0EA
:10320000E0E0D6018E2F20E2552351F1992329F0D9
:10321000D6019C93C60101966C0196012D5F3F4F2C
:10322000E2FE24C08EE4D6018C9391E411969C9327
:10323000119712968C93D9018E2F90E281111BC0A9
:10324000E20FF32FF11D10828EEF9FEF2996ECE035
:103250000C94551C9DE2C6CF90E2C4CF2D938150B3
:103260008111FCCFCE0ED11CE0E0D0CF8EE6D6018E
:103270008C9391E6DBCF9D938150E0CF482F447033
:1032800082FF3DC084E0911101C083E08F1510F4EE
:10329000EF2DE81BD6018E2F20E2552309F199234B
:1032A00029F0D6019C93C60101966C0196012D5F11
:1032B0003F4FE2FE1BC089E4D6018C938EE4119649
:1032C0008C93119786E412968C93D9018E2F90E2FD
:1032D000882309F4B5CF9D938150FACF2D93815067
:1032E0008111FCCFCE0ED11CE0E0D9CF89E6D6010A
:1032F0008C938EE611968C93119786E6E4CF9B0112
:1033000077FF02C030E020E0A1E0B0E0911102C000
:10331000B0E0A0E0F9013196AE0FBF1F8B2C912CCD
:10332000BB2009F461C05401EFEFAE1ABE0AAA0D2A
:10333000BB1DFA161B0619F014F04F2D4A1B511134
:1033400088C0E3FC59C07601A42FB0E2A1114FC0A0
:10335000C40ED11C992309F45BC040E0D60111963C
:10336000F60190836D01552309F448C0012F060F23
:103370009A81582F507184FF03C0913309F4015092
:1033800010160CF047C0093008F008E0EEE2FE2EFF
:103390005B01A01AB10885019194819491082F3F97
:1033A000320729F4D601FC92F60131966F016217BB
:1033B000730794F1021713077CF5DB01A21BB30B13
:1033C000AA24A394B12CAC0EBD1EAA0DBB1D119650
:1033D0008C9121503109D601119628153905F4F048
:1033E000F60180836D01DBCFB12CA12CA0CFF701BA
:1033F000B1937F01A150AACF9111B0CFD601942FE4
:1034000050E302C05D9391509111FCCFC40ED11CCA
:1034100040E0ACCF01E0BACF80E3DBCF62177307A7
:1034200031F4963388F4953311F4552369F0F6019D
:103430008083FD01842F90E2811108C0A40FB11D8B
:103440001C9290E080E002CF81E3F1CF9193815014
:10345000F3CF911183CF8ACF283008F027E03327AC
:10346000DA01990F311D87FD9160009661057105A4
:1034700039F432602E5F3D9330E32A95E1F70895E9
:103480009F3F30F080387105610509F03C5F3C5F7B
:103490003D93913008F08068911DDF93CF931F9387
:1034A0000F93FF92EF92192F987F9695E92F96959B
:1034B0009695E90FFF27EE53FF4F99273327EE2408
:1034C000FF24A701E70105900894079428F4360F1C
:1034D000E71EF81E491F511D660F771F881F991F91
:1034E0000694A1F70590079428F4E70EF81E491FEB
:1034F000561FC11D770F881F991F661F0694A1F7DD
:103500000590079428F4F80E491F561FC71FD11DB8
:10351000880F991F661F771F0694A1F705900794DF
:1035200020F4490F561FC71FD81F990F661F771F1A
:10353000881F0694A9F784911095177041F0D695CD
:10354000C79557954795F794E7941A95C1F7E8E61C
:10355000F0E06894159015913591659195910590DD
:103560007FE27395E118F10A430B560BC90BD009A2
:10357000C0F7E10CF11E431F561FC91FD01D7EF47A
:10358000703311F48A95E6CFE894015030F0080FBB
:103590000AF40027021708F4202F2395022F7A330C
:1035A00028F079E37D932A95E9F710C07D932A9559
:1035B00089F6069497956795379517951794E118AE
:1035C000F10A430B560BC90BD00998F023957E9155
:1035D00073957A3308F070E37C932013B8F77E91EB
:1035E00070617D9330F0839571E37D9370E32A954C
:1035F000E1F71124EF90FF900F911F91CF91DF9190
:10360000992787FD909508950E94461B08F481E054
:103610000895E89409C097FB3EF4909580957095C5
:1036200061957F4F8F4F9F4F9923A9F0F92F96E90E
:10363000BB279395F695879577956795B795F11183
:10364000F8CFFAF4BB0F11F460FF1BC06F5F7F4F20
:103650008F4F9F4F16C0882311F096E911C0772332
:1036600021F09EE8872F762F05C0662371F096E83B
:10367000862F70E060E02AF09A95660F771F881F0A
:10368000DAF7880F9695879597F90895990F0008AE
:10369000550FAA0BE0E8FEEF16161706E807F90724
:1036A000C0F012161306E407F50798F0621B730BBF
:1036B000840B950B39F40A2661F0232B242B252B40
:1036C00021F408950A2609F4A140A6958FEF811DE3
:1036D000811D08950E947D1B0C94EE1B0E94E01B2F
:1036E00038F00E94E71B20F0952311F00C94D71BB3
:1036F0000C94DD1B11240C94221C0E94FF1B70F300
:10370000959FC1F3950F50E0551F629FF001729F86
:10371000BB27F00DB11D639FAA27F00DB11DAA1F95
:10372000649F6627B00DA11D661F829F2227B00DE2
:10373000A11D621F739FB00DA11D621F839FA00D6D
:10374000611D221F749F3327A00D611D231F849FBD
:10375000600D211D822F762F6A2F11249F57504014
:103760009AF0F1F088234AF0EE0FFF1FBB1F661F8F
:10377000771F881F91505040A9F79E3F510580F058
:103780000C94D71B0C94221C5F3FE4F3983ED4F3B7
:10379000869577956795B795F795E7959F5FC1F7FC
:1037A000FE2B880F911D9695879597F9089597F9A7
:1037B0009F6780E870E060E008959FEF80EC0895D7
:1037C00000240A9416161706180609060895002400
:1037D0000A9412161306140605060895092E03947A
:1037E000000C11F4882352F0BB0F40F4BF2B11F4EE
:1037F00060FF04C06F5F7F4F8F4F9F4F089557FD4D
:103800009058440F551F59F05F3F71F04795880F4E
:1038100097FB991F61F09F3F79F0879508951216E5
:1038200013061406551FF2CF4695F1DF08C0161691
:1038300017061806991FF1CF869571056105089442
:103840000895E894BB2766277727CB0197F9089559
:103850000E946A1CA59F900DB49F900DA49F800D9F
:10386000911D112408952F923F924F925F926F9273
:103870007F928F929F92AF92BF92CF92DF92EF9200
:10388000FF920F931F93CF93DF93CDB7DEB7CA1B81
:10389000DB0B0FB6F894DEBF0FBECDBF09942A88AC
:1038A000398848885F846E847D848C849B84AA8454
:1038B000B984C884DF80EE80FD800C811B81AA81E1
:1038C000B981CE0FD11D0FB6F894DEBF0FBECDBFAC
:1038D000ED010895A29FB001B39FC001A39F700D99
:1038E000811D1124911DB29F700D811D1124911D08
:1038F00008955058BB27AA270E94911C0C94EE1BD8
:103900000E94E01B38F00E94E71B20F039F49F3F33
:1039100019F426F40C94DD1B0EF4E095E7FB0C94EF
:10392000D71BE92F0E94FF1B58F3BA1762077307D2
:103930008407950720F079F4A6F50C94211C0EF469
:10394000E0950B2EBA2FA02D0B01B90190010C01AF
:10395000CA01A0011124FF27591B99F0593F50F4C7
:10396000503E68F11A16F040A22F232F342F44271F
:10397000585FF3CF469537952795A795F040539517
:10398000C9F77EF41F16BA0B620B730B840BBAF0E7
:103990009150A1F0FF0FBB1F661F771F881FC2F752
:1039A0000EC0BA0F621F731F841F48F48795779566
:1039B0006795B795F7959E3F08F0B0CF9395880F20
:1039C00008F09927EE0F9795879508950E94FA1CA5
:1039D0000C94EE1B0E94E71B58F00E94E01B40F085
:1039E00029F45F3F29F00C94D71B51110C94221C31
:1039F0000C94DD1B0E94FF1B68F39923B1F3552340
:103A000091F3951B550BBB27AA27621773078407F1
:103A100038F09F5F5F4F220F331F441FAA1FA9F387
:103A200035D00E2E3AF0E0E832D091505040E69575
:103A3000001CCAF72BD0FE2F29D0660F771F881FD6
:103A4000BB1F261737074807AB07B0E809F0BB0BC9
:103A5000802DBF01FF2793585F4F3AF09E3F5105DD
:103A600078F00C94D71B0C94221C5F3FE4F3983E33
:103A7000D4F3869577956795B795F7959F5FC9F7C6
:103A8000880F911D9695879597F90895E1E0660F47
:103A9000771F881FBB1F621773078407BA0720F0C0
:103AA000621B730B840BBA0BEE1F88F7E095089529
:103AB0000E94461B08F48FEF0895EE0FFF1F05903C
:103AC000F491E02D09940F931F93CF93DF938230ED
:103AD000910510F482E090E0E091F601F091F70199
:103AE00030E020E0B0E0A0E0309799F421153105F6
:103AF00009F44AC0281B390B24303105D8F58A81D6
:103B00009B816115710589F1FB0193838283FE011D
:103B100011C0408151810281138148175907E0F09B
:103B20004817590799F4109761F012960C93129761
:103B300013961C933296CF01DF91CF911F910F9175
:103B400008950093F6011093F701F4CF2115310584
:103B500051F04217530738F0A901DB019A01BD016A
:103B6000DF01F801C1CFEF01F9CF9093F701809306
:103B7000F601CDCFFE01E20FF31F81939193225006
:103B8000310939832883D7CF2091F4013091F50191
:103B9000232B41F420910201309103013093F50170
:103BA0002093F4012091000130910101211531058C
:103BB00041F42DB73EB74091040150910501241BFB
:103BC000350BE091F401F091F501E217F307A0F451
:103BD0002E1B3F0B2817390778F0AC014E5F5F4F63
:103BE0002417350748F04E0F5F1F5093F50140939F
:103BF000F401819391939FCFF0E0E0E09CCFCF93CD
:103C0000DF930097E9F0FC01329713821282A091B2
:103C1000F601B091F701ED0130E020E01097A1F43A
:103C200020813181820F931F2091F4013091F501A1
:103C30002817390709F061C0F093F501E093F4010A
:103C4000DF91CF910895EA01CE17DF07E8F54A81A9
:103C50005B819E0141155105B1F7E901FB83EA83C0
:103C600049915991C40FD51FEC17FD0761F480816C
:103C700091810296840F951FE9019983888382813F
:103C800093819B838A83F0E0E0E012968D919C9172
:103C900013970097B9F52D913C911197CD0102969C
:103CA000820F931F2091F4013091F50128173907F5
:103CB00039F6309751F51092F7011092F601B09352
:103CC000F501A093F401BCCFD383C283408151811D
:103CD000840F951FC817D90761F44E5F5F4F888125
:103CE0009981480F591F518340838A819B81938317
:103CF00082832115310509F0B0CFF093F701E093ED
:103D0000F6019ECFFD01DC01C0CF13821282D7CF16
:103D1000B0E0A0E0EEE8FEE10C94351C8C010097C9
:103D200051F4CB010E94631D8C01C801CDB7DEB7F1
:103D3000E0E10C94511CFC01E60FF71F9C0122509E
:103D40003109E217F30708F49DC0D901CD91DC9148
:103D50001197C617D70798F0C530D10530F3CE01BB
:103D600004978617970708F3C61BD70B2297C193B2
:103D7000D1936D937C93CF010E94FF1DD6CF5B0141
:103D8000AC1ABD0A4C018C0E9D1EA091F601B0919B
:103D9000F701512C412CF12CE12C109731F5809139
:103DA000F4019091F5018815990509F05CC046165B
:103DB000570608F058C080910001909101010097CA
:103DC00041F48DB79EB74091040150910501841BC9
:103DD000950BE817F90708F055C0F093F501E0934B
:103DE000F401F90171836083A0CF8D919C911197AB
:103DF00012966C90129713967C901397A815B9059C
:103E000059F56C0142E0C40ED11CCA14DB0420F148
:103E1000AC014A195B09DA011296159780F06282AB
:103E2000738251834083D9016D937C93E114F10433
:103E300071F0D7011396FC93EE93129776CF2296EA
:103E40008C0F9D1FF90191838083F301EFCFF093D5
:103E5000F701E093F60169CF4816590608F42C01E2
:103E60007D01D3019ACFCB010E94631D7C01009795
:103E700049F0AE01B8010E94451FC8010E94FF1D14
:103E8000870153CF10E000E050CFFB01DC0102C0FE
:103E900001900D9241505040D8F70895FB01DC018C
:0E3EA00001900D920020E1F70895F894FFCFF5
:103EAE000000F8018000000000003E0345028B0276
:0E3EBE008B03FC029A02AE020D0A003B0000CC
:00000001FF
